:100000000C945E000C9486000C9486000C94860080
:100010000C9486000C9486000C9486000C94860048
:100020000C9486000C9486000C9486000C94860038
:100030000C9486000C9486000C9486000C94860028
:100040000C9422010C9486000C9486000C9486007B
:100050000C9486000C9486000C9486000C94860008
:100060000C9486000C948600000000080002010039
:100070000003040700000000000000000000000072
:10008000250028002B0000000000240027002A0083
:10009000040404040404040402020202020203032E
:1000A0000303030301020408102040800102040836
:1000B00010200102040810200C02170211241FBE98
:1000C000CFEFD8E0DEBFCDBF11E0A0E0B1E0E6EBBE
:1000D000F6E002C005900D92A631B107D9F721E0F4
:1000E000A6E1B1E001C01D92A932B207E1F710E02C
:1000F000CDE5D0E004C02197FE010E941B02CC3563
:10010000D107C9F70E946C010C944E030C940000B7
:1001100090E0FC01EC55FF4F2491FC01E057FF4FAC
:100120008491882399F090E0880F991FFC01EA5789
:10013000FF4FA591B491FC01E458FF4F8591949134
:100140008FB7F894EC91E22BEC938FBF089590E079
:10015000FC01E859FF4F3491FC01EC55FF4F24910D
:10016000FC01E057FF4FE491EE2309F43BC0332339
:1001700039F1333091F038F43130A9F0323001F5F3
:1001800084B58F7D12C0373091F03830A1F0343013
:10019000B9F4809180008F7D03C0809180008F77BB
:1001A000809380000DC084B58F7784BD09C0809195
:1001B000B0008F7703C08091B0008F7D8093B00036
:1001C000F0E0EE0FFF1FE458FF4FA591B4918FB7F9
:1001D000F894EC91611103C020952E2301C02E2BC1
:1001E0002C938FBF08950895CF93DF93EC018AE09D
:1001F00091E0998388838A819B81009739F0DC01A3
:10020000ED91FC910280F381E02D09958C819D8117
:10021000009749F0DC01ED91FC910280F381E02D23
:10022000DF91CF910994DF91CF910895CF93DF9320
:10023000EC010E94F400CE01DF91CF910C94B60244
:100240000C94B6021F920F920FB60F9211242F93A7
:100250003F938F939F93AF93BF9380912101909190
:100260002201A0912301B09124013091200123E0CB
:10027000230F2D3720F40196A11DB11D05C026E8DE
:10028000230F0296A11DB11D20932001809321010F
:1002900090932201A0932301B093240180911C012B
:1002A00090911D01A0911E01B0911F010196A11D09
:1002B000B11D80931C0190931D01A0931E01B0936A
:1002C0001F01BF91AF919F918F913F912F910F90FF
:1002D0000FBE0F901F901895789484B5826084BDEE
:1002E00084B5816084BD85B5826085BD85B581603A
:1002F00085BD80916E00816080936E0010928100B8
:100300008091810082608093810080918100816072
:100310008093810080918000816080938000809133
:10032000B10084608093B1008091B00081608093BF
:10033000B00080917A00846080937A0080917A0086
:10034000826080937A0080917A00816080937A0045
:1003500080917A00806880937A001092C100809129
:10036000180190911901009739F0DC01ED91FC9191
:100370000280F381E02D099580911A0190911B0173
:10038000009739F0DC01ED91FC910280F381E02DC2
:10039000099586E090E00E942102EC0102E111E063
:1003A0001983088388E090E09B838A8389E090E04A
:1003B0009D838C8388E00E9488008C810E94880045
:1003C000D0931901C093180186E090E00E942102A9
:1003D000EC01198308838AE090E09B838A838BE099
:1003E00090E09D838C838AE00E9488008C810E942B
:1003F0008800D0931B01C0931A01C0E0D0E061E0F7
:1004000088E00E94A70060E089E00E94A700209792
:10041000B1F30E940000F3CFE6E1F1E08AE091E061
:10042000918380831382128215821482089586E15B
:1004300091E00C94F400EE0FFF1F0590F491E02D75
:100440000994CF93DF938230910510F482E090E01D
:10045000E0912701F091280120E030E0C0E0D0E0F9
:10046000309711F14081518148175907C0F0481762
:10047000590761F482819381209719F09B838A83C5
:100480002BC0909328018093270126C021153105A8
:1004900019F04217530718F49A01BE01DF01EF016A
:1004A0000280F381E02DDCCF2115310509F1281BF5
:1004B000390B2430310590F412968D919C9113974D
:1004C0006115710521F0FB019383828304C0909331
:1004D000280180932701FD01329644C0FD01E20FFF
:1004E000F31F81939193225031092D933C933AC08D
:1004F0002091250130912601232B41F42091020106
:1005000030910301309326012093250120910001B1
:10051000309101012115310541F42DB73EB74091CD
:10052000040150910501241B350BE0912501F09148
:100530002601E217F307A0F42E1B3F0B28173907FB
:1005400078F0AC014E5F5F4F2417350748F04E0F2F
:100550005F1F50932601409325018193919302C020
:10056000E0E0F0E0CF01DF91CF9108950F931F936A
:10057000CF93DF93009709F48CC0FC01329713826C
:10058000128200912701109128010115110581F4B3
:1005900020813181820F931F209125013091260106
:1005A0002817390779F5F0932601E093250171C0EA
:1005B000D80140E050E0AE17BF0750F412962D91DD
:1005C0003C911397AD012115310509F1D901F3CF04
:1005D0009D01DA013383228360817181860F971F29
:1005E0008217930769F4EC0128813981260F371FA0
:1005F0002E5F3F4F318320838A819B819383828347
:10060000452B29F4F0932801E093270142C013966B
:10061000FC93EE931297ED01499159919E01240F9D
:10062000351FE217F30771F480819181840F951FC4
:10063000029611969C938E938281938113969C933C
:100640008E931297E0E0F0E0D80112968D919C9184
:100650001397009719F0F8018C01F6CF8D919C91BA
:1006600098012E5F3F4F820F931F209125013091FB
:1006700026012817390769F4309729F410922801C8
:100680001092270102C01382128210932601009358
:100690002501DF91CF911F910F91089510E0CDE5D5
:1006A000D0E004C0FE010E941B022196CE35D10786
:0606B000C9F7F894FFCF2A
:1006B60000002901800000000000F400160100007F
:0606C6000000F30020011A
:00000001FF
